{
  "_format": "hh-sol-artifact-1",
  "contractName": "SolarSystemNftMinting",
  "sourceName": "contracts/solar_system_minting.sol",
  "abi": [
    {
      "anonymous": false,
      "inputs": [
        {
          "indexed": true,
          "internalType": "address",
          "name": "account",
          "type": "address"
        },
        {
          "indexed": true,
          "internalType": "address",
          "name": "operator",
          "type": "address"
        },
        {
          "indexed": false,
          "internalType": "bool",
          "name": "approved",
          "type": "bool"
        }
      ],
      "name": "ApprovalForAll",
      "type": "event"
    },
    {
      "anonymous": false,
      "inputs": [
        {
          "indexed": false,
          "internalType": "address",
          "name": "account",
          "type": "address"
        },
        {
          "indexed": false,
          "internalType": "uint256",
          "name": "tokenId",
          "type": "uint256"
        },
        {
          "indexed": false,
          "internalType": "uint256",
          "name": "amount",
          "type": "uint256"
        }
      ],
      "name": "BurntSolarSystemNft",
      "type": "event"
    },
    {
      "anonymous": false,
      "inputs": [
        {
          "indexed": false,
          "internalType": "uint8",
          "name": "version",
          "type": "uint8"
        }
      ],
      "name": "Initialized",
      "type": "event"
    },
    {
      "anonymous": false,
      "inputs": [
        {
          "indexed": false,
          "internalType": "address",
          "name": "account",
          "type": "address"
        },
        {
          "indexed": false,
          "internalType": "uint256",
          "name": "tokenId",
          "type": "uint256"
        },
        {
          "indexed": false,
          "internalType": "string",
          "name": "uri",
          "type": "string"
        },
        {
          "indexed": false,
          "internalType": "uint256",
          "name": "amount",
          "type": "uint256"
        }
      ],
      "name": "MintedSolarSystemNft",
      "type": "event"
    },
    {
      "anonymous": false,
      "inputs": [
        {
          "indexed": false,
          "internalType": "address",
          "name": "owner",
          "type": "address"
        },
        {
          "indexed": false,
          "internalType": "address",
          "name": "nominee",
          "type": "address"
        }
      ],
      "name": "NomineeAdded",
      "type": "event"
    },
    {
      "anonymous": false,
      "inputs": [
        {
          "indexed": false,
          "internalType": "address",
          "name": "newOwner",
          "type": "address"
        }
      ],
      "name": "OwnerChanged",
      "type": "event"
    },
    {
      "anonymous": false,
      "inputs": [
        {
          "indexed": false,
          "internalType": "uint256",
          "name": "tokenId",
          "type": "uint256"
        },
        {
          "indexed": false,
          "internalType": "string",
          "name": "uri",
          "type": "string"
        }
      ],
      "name": "SolarSystemNftAdded",
      "type": "event"
    },
    {
      "anonymous": false,
      "inputs": [
        {
          "indexed": true,
          "internalType": "address",
          "name": "operator",
          "type": "address"
        },
        {
          "indexed": true,
          "internalType": "address",
          "name": "from",
          "type": "address"
        },
        {
          "indexed": true,
          "internalType": "address",
          "name": "to",
          "type": "address"
        },
        {
          "indexed": false,
          "internalType": "uint256[]",
          "name": "ids",
          "type": "uint256[]"
        },
        {
          "indexed": false,
          "internalType": "uint256[]",
          "name": "values",
          "type": "uint256[]"
        }
      ],
      "name": "TransferBatch",
      "type": "event"
    },
    {
      "anonymous": false,
      "inputs": [
        {
          "indexed": true,
          "internalType": "address",
          "name": "operator",
          "type": "address"
        },
        {
          "indexed": true,
          "internalType": "address",
          "name": "from",
          "type": "address"
        },
        {
          "indexed": true,
          "internalType": "address",
          "name": "to",
          "type": "address"
        },
        {
          "indexed": false,
          "internalType": "uint256",
          "name": "id",
          "type": "uint256"
        },
        {
          "indexed": false,
          "internalType": "uint256",
          "name": "value",
          "type": "uint256"
        }
      ],
      "name": "TransferSingle",
      "type": "event"
    },
    {
      "anonymous": false,
      "inputs": [
        {
          "indexed": false,
          "internalType": "string",
          "name": "value",
          "type": "string"
        },
        {
          "indexed": true,
          "internalType": "uint256",
          "name": "id",
          "type": "uint256"
        }
      ],
      "name": "URI",
      "type": "event"
    },
    {
      "inputs": [],
      "name": "acceptNomination",
      "outputs": [],
      "stateMutability": "nonpayable",
      "type": "function"
    },
    {
      "inputs": [
        {
          "internalType": "address",
          "name": "account",
          "type": "address"
        }
      ],
      "name": "addNominee",
      "outputs": [],
      "stateMutability": "nonpayable",
      "type": "function"
    },
    {
      "inputs": [
        {
          "internalType": "address",
          "name": "account",
          "type": "address"
        },
        {
          "internalType": "uint256",
          "name": "id",
          "type": "uint256"
        }
      ],
      "name": "balanceOf",
      "outputs": [
        {
          "internalType": "uint256",
          "name": "",
          "type": "uint256"
        }
      ],
      "stateMutability": "view",
      "type": "function"
    },
    {
      "inputs": [
        {
          "internalType": "address[]",
          "name": "accounts",
          "type": "address[]"
        },
        {
          "internalType": "uint256[]",
          "name": "ids",
          "type": "uint256[]"
        }
      ],
      "name": "balanceOfBatch",
      "outputs": [
        {
          "internalType": "uint256[]",
          "name": "",
          "type": "uint256[]"
        }
      ],
      "stateMutability": "view",
      "type": "function"
    },
    {
      "inputs": [
        {
          "internalType": "uint256",
          "name": "tokenId_",
          "type": "uint256"
        },
        {
          "internalType": "uint256",
          "name": "amount",
          "type": "uint256"
        }
      ],
      "name": "burnNft",
      "outputs": [],
      "stateMutability": "nonpayable",
      "type": "function"
    },
    {
      "inputs": [],
      "name": "initialize",
      "outputs": [],
      "stateMutability": "nonpayable",
      "type": "function"
    },
    {
      "inputs": [
        {
          "internalType": "address",
          "name": "account",
          "type": "address"
        },
        {
          "internalType": "address",
          "name": "operator",
          "type": "address"
        }
      ],
      "name": "isApprovedForAll",
      "outputs": [
        {
          "internalType": "bool",
          "name": "",
          "type": "bool"
        }
      ],
      "stateMutability": "view",
      "type": "function"
    },
    {
      "inputs": [
        {
          "internalType": "address",
          "name": "account",
          "type": "address"
        },
        {
          "internalType": "string",
          "name": "uri_",
          "type": "string"
        },
        {
          "internalType": "uint256",
          "name": "amount",
          "type": "uint256"
        }
      ],
      "name": "mintNft",
      "outputs": [],
      "stateMutability": "nonpayable",
      "type": "function"
    },
    {
      "inputs": [],
      "name": "nominee",
      "outputs": [
        {
          "internalType": "address",
          "name": "",
          "type": "address"
        }
      ],
      "stateMutability": "view",
      "type": "function"
    },
    {
      "inputs": [],
      "name": "owner",
      "outputs": [
        {
          "internalType": "address",
          "name": "",
          "type": "address"
        }
      ],
      "stateMutability": "view",
      "type": "function"
    },
    {
      "inputs": [
        {
          "internalType": "address",
          "name": "from",
          "type": "address"
        },
        {
          "internalType": "address",
          "name": "to",
          "type": "address"
        },
        {
          "internalType": "uint256[]",
          "name": "ids",
          "type": "uint256[]"
        },
        {
          "internalType": "uint256[]",
          "name": "amounts",
          "type": "uint256[]"
        },
        {
          "internalType": "bytes",
          "name": "data",
          "type": "bytes"
        }
      ],
      "name": "safeBatchTransferFrom",
      "outputs": [],
      "stateMutability": "nonpayable",
      "type": "function"
    },
    {
      "inputs": [
        {
          "internalType": "address",
          "name": "from",
          "type": "address"
        },
        {
          "internalType": "address",
          "name": "to",
          "type": "address"
        },
        {
          "internalType": "uint256",
          "name": "id",
          "type": "uint256"
        },
        {
          "internalType": "uint256",
          "name": "amount",
          "type": "uint256"
        },
        {
          "internalType": "bytes",
          "name": "data",
          "type": "bytes"
        }
      ],
      "name": "safeTransferFrom",
      "outputs": [],
      "stateMutability": "nonpayable",
      "type": "function"
    },
    {
      "inputs": [
        {
          "internalType": "address",
          "name": "operator",
          "type": "address"
        },
        {
          "internalType": "bool",
          "name": "approved",
          "type": "bool"
        }
      ],
      "name": "setApprovalForAll",
      "outputs": [],
      "stateMutability": "nonpayable",
      "type": "function"
    },
    {
      "inputs": [
        {
          "internalType": "string",
          "name": "uri_",
          "type": "string"
        }
      ],
      "name": "setSolarSystemNftUri",
      "outputs": [
        {
          "internalType": "uint256",
          "name": "",
          "type": "uint256"
        }
      ],
      "stateMutability": "nonpayable",
      "type": "function"
    },
    {
      "inputs": [
        {
          "internalType": "bytes4",
          "name": "interfaceId",
          "type": "bytes4"
        }
      ],
      "name": "supportsInterface",
      "outputs": [
        {
          "internalType": "bool",
          "name": "",
          "type": "bool"
        }
      ],
      "stateMutability": "view",
      "type": "function"
    },
    {
      "inputs": [
        {
          "internalType": "string",
          "name": "uri_",
          "type": "string"
        }
      ],
      "name": "tokenId",
      "outputs": [
        {
          "internalType": "uint256",
          "name": "",
          "type": "uint256"
        }
      ],
      "stateMutability": "view",
      "type": "function"
    },
    {
      "inputs": [
        {
          "internalType": "uint256",
          "name": "tokenId_",
          "type": "uint256"
        }
      ],
      "name": "totalSupply",
      "outputs": [
        {
          "internalType": "uint256",
          "name": "",
          "type": "uint256"
        }
      ],
      "stateMutability": "view",
      "type": "function"
    },
    {
      "inputs": [
        {
          "internalType": "uint256",
          "name": "tokenId_",
          "type": "uint256"
        }
      ],
      "name": "uri",
      "outputs": [
        {
          "internalType": "string",
          "name": "",
          "type": "string"
        }
      ],
      "stateMutability": "view",
      "type": "function"
    }
  ],
  "bytecode": "0x608060405234801561001057600080fd5b50614789806100206000396000f3fe608060405234801561001057600080fd5b50600436106101155760003560e01c80638da5cb5b116100a2578063beeed75911610071578063beeed75914610304578063d3468de714610320578063e985e9c51461032a578063f242432a1461035a578063f809ece61461037657610115565b80638da5cb5b1461026a5780638fc70f7814610288578063a22cb465146102b8578063bd85b039146102d457610115565b806320f99c0a116100e957806320f99c0a146101da5780632eb2c2d6146101f857806345af1951146102145780634e1273f4146102305780638129fc1c1461026057610115565b8062fdd58e1461011a57806301ffc9a71461014a5780630e89341c1461017a57806316f413a1146101aa575b600080fd5b610134600480360381019061012f9190612775565b610392565b60405161014191906127c4565b60405180910390f35b610164600480360381019061015f9190612837565b61045b565b604051610171919061287f565b60405180910390f35b610194600480360381019061018f919061289a565b61053d565b6040516101a19190612957565b60405180910390f35b6101c460048036038101906101bf9190612aae565b6105eb565b6040516101d191906127c4565b60405180910390f35b6101e2610673565b6040516101ef9190612b06565b60405180910390f35b610212600480360381019061020d9190612c8a565b61069d565b005b61022e60048036038101906102299190612d59565b61073e565b005b61024a60048036038101906102459190612e5c565b6108b0565b6040516102579190612f92565b60405180910390f35b6102686109c9565b005b610272610c00565b60405161027f9190612b06565b60405180910390f35b6102a2600480360381019061029d9190612aae565b610c2a565b6040516102af91906127c4565b60405180910390f35b6102d260048036038101906102cd9190612fe0565b610dff565b005b6102ee60048036038101906102e9919061289a565b610e15565b6040516102fb91906127c4565b60405180910390f35b61031e60048036038101906103199190613020565b610e32565b005b6103286110d0565b005b610344600480360381019061033f919061304d565b6111da565b604051610351919061287f565b60405180910390f35b610374600480360381019061036f919061308d565b61126e565b005b610390600480360381019061038b9190613124565b61130f565b005b60008073ffffffffffffffffffffffffffffffffffffffff168373ffffffffffffffffffffffffffffffffffffffff1603610402576040517f08c379a00000000000000000000000000000000000000000000000000000000081526004016103f990613205565b60405180910390fd5b6065600083815260200190815260200160002060008473ffffffffffffffffffffffffffffffffffffffff1673ffffffffffffffffffffffffffffffffffffffff16815260200190815260200160002054905092915050565b60007fd9b67a26000000000000000000000000000000000000000000000000000000007bffffffffffffffffffffffffffffffffffffffffffffffffffffffff1916827bffffffffffffffffffffffffffffffffffffffffffffffffffffffff1916148061052657507f0e89341c000000000000000000000000000000000000000000000000000000007bffffffffffffffffffffffffffffffffffffffffffffffffffffffff1916827bffffffffffffffffffffffffffffffffffffffffffffffffffffffff1916145b806105365750610535826114e8565b5b9050919050565b606061054882611552565b60cc6000838152602001908152602001600020805461056690613254565b80601f016020809104026020016040519081016040528092919081815260200182805461059290613254565b80156105df5780601f106105b4576101008083540402835291602001916105df565b820191906000526020600020905b8154815290600101906020018083116105c257829003601f168201915b50505050509050919050565b60008060cd836040516105fe91906132c1565b9081526020016040518091039020541161064d576040517f08c379a00000000000000000000000000000000000000000000000000000000081526004016106449061334a565b60405180910390fd5b60cd8260405161065d91906132c1565b9081526020016040518091039020549050919050565b600060ca60009054906101000a900473ffffffffffffffffffffffffffffffffffffffff16905090565b6106a56115b7565b73ffffffffffffffffffffffffffffffffffffffff168573ffffffffffffffffffffffffffffffffffffffff1614806106eb57506106ea856106e56115b7565b6111da565b5b61072a576040517f08c379a0000000000000000000000000000000000000000000000000000000008152600401610721906133dc565b60405180910390fd5b61073785858585856115bf565b5050505050565b60c960009054906101000a900473ffffffffffffffffffffffffffffffffffffffff1673ffffffffffffffffffffffffffffffffffffffff163373ffffffffffffffffffffffffffffffffffffffff16146107ce576040517f08c379a00000000000000000000000000000000000000000000000000000000081526004016107c590613448565b60405180910390fd5b6107d66118e3565b6107df81611932565b6107e882611552565b806107f33384610392565b1015610834576040517f08c379a000000000000000000000000000000000000000000000000000000000815260040161082b906134da565b60405180910390fd5b8060ce600084815260200190815260200160002060008282546108579190613529565b925050819055507f264c34838ab78177dd6b17d9c8cd4adfd1d818d8cce826474c688a013a8811883383836040516108919392919061355d565b60405180910390a16108a4338383611978565b6108ac611bc0565b5050565b606081518351146108f6576040517f08c379a00000000000000000000000000000000000000000000000000000000081526004016108ed90613606565b60405180910390fd5b6000835167ffffffffffffffff81111561091357610912612983565b5b6040519080825280602002602001820160405280156109415781602001602082028036833780820191505090505b50905060005b84518110156109be5761098e85828151811061096657610965613626565b5b602002602001015185838151811061098157610980613626565b5b6020026020010151610392565b8282815181106109a1576109a0613626565b5b602002602001018181525050806109b790613655565b9050610947565b508091505092915050565b60008060019054906101000a900460ff161590508080156109fa5750600160008054906101000a900460ff1660ff16105b80610a275750610a0930611bca565b158015610a265750600160008054906101000a900460ff1660ff16145b5b610a66576040517f08c379a0000000000000000000000000000000000000000000000000000000008152600401610a5d9061370f565b60405180910390fd5b60016000806101000a81548160ff021916908360ff1602179055508015610aa3576001600060016101000a81548160ff0219169083151502179055505b33600073ffffffffffffffffffffffffffffffffffffffff168173ffffffffffffffffffffffffffffffffffffffff1603610b13576040517f08c379a0000000000000000000000000000000000000000000000000000000008152600401610b0a9061377b565b60405180910390fd5b610b2b60405180602001604052806000815250611bed565b3360c960006101000a81548173ffffffffffffffffffffffffffffffffffffffff021916908373ffffffffffffffffffffffffffffffffffffffff1602179055507fa2ea9883a321a3e97b8266c2b078bfeec6d50c711ed71f874a90d500ae2eaf3633604051610b9b9190612b06565b60405180910390a1508015610bfd5760008060016101000a81548160ff0219169083151502179055507f7f26b83ff96e1f2b6a682f133852f6798a09c465da95921460cefb38474024986001604051610bf491906137ed565b60405180910390a15b50565b600060c960009054906101000a900473ffffffffffffffffffffffffffffffffffffffff16905090565b600060c960009054906101000a900473ffffffffffffffffffffffffffffffffffffffff1673ffffffffffffffffffffffffffffffffffffffff163373ffffffffffffffffffffffffffffffffffffffff1614610cbc576040517f08c379a0000000000000000000000000000000000000000000000000000000008152600401610cb390613448565b60405180910390fd5b6000825111610d00576040517f08c379a0000000000000000000000000000000000000000000000000000000008152600401610cf790613854565b60405180910390fd5b600060cd83604051610d1291906132c1565b90815260200160405180910390205414610d61576040517f08c379a0000000000000000000000000000000000000000000000000000000008152600401610d58906138c0565b60405180910390fd5b610d6b60cb611c48565b6000610d7760cb611c5e565b90508260cc60008381526020019081526020016000209081610d999190613a82565b508060cd84604051610dab91906132c1565b9081526020016040518091039020819055507f034d075dc5450d6166fb04cf1711cc0b3ad43173ec52c49d621e5019e1194bf18184604051610dee929190613b54565b60405180910390a180915050919050565b610e11610e0a6115b7565b8383611c6c565b5050565b600060ce6000838152602001908152602001600020549050919050565b60c960009054906101000a900473ffffffffffffffffffffffffffffffffffffffff1673ffffffffffffffffffffffffffffffffffffffff163373ffffffffffffffffffffffffffffffffffffffff1614610ec2576040517f08c379a0000000000000000000000000000000000000000000000000000000008152600401610eb990613448565b60405180910390fd5b80600073ffffffffffffffffffffffffffffffffffffffff168173ffffffffffffffffffffffffffffffffffffffff1603610f32576040517f08c379a0000000000000000000000000000000000000000000000000000000008152600401610f299061377b565b60405180910390fd5b8173ffffffffffffffffffffffffffffffffffffffff1660c960009054906101000a900473ffffffffffffffffffffffffffffffffffffffff1673ffffffffffffffffffffffffffffffffffffffff1603610fc2576040517f08c379a0000000000000000000000000000000000000000000000000000000008152600401610fb990613bf6565b60405180910390fd5b8173ffffffffffffffffffffffffffffffffffffffff1660ca60009054906101000a900473ffffffffffffffffffffffffffffffffffffffff1673ffffffffffffffffffffffffffffffffffffffff1603611052576040517f08c379a000000000000000000000000000000000000000000000000000000000815260040161104990613c88565b60405180910390fd5b7f4a1ec9984454810d10854337a65174df17ada194170e7e80c59a9ab6369375033383604051611083929190613ca8565b60405180910390a18160ca60006101000a81548173ffffffffffffffffffffffffffffffffffffffff021916908373ffffffffffffffffffffffffffffffffffffffff1602179055505050565b60ca60009054906101000a900473ffffffffffffffffffffffffffffffffffffffff1673ffffffffffffffffffffffffffffffffffffffff163373ffffffffffffffffffffffffffffffffffffffff1614611160576040517f08c379a000000000000000000000000000000000000000000000000000000000815260040161115790613d1d565b60405180910390fd5b7fa2ea9883a321a3e97b8266c2b078bfeec6d50c711ed71f874a90d500ae2eaf363360405161118f9190612b06565b60405180910390a13360c960006101000a81548173ffffffffffffffffffffffffffffffffffffffff021916908373ffffffffffffffffffffffffffffffffffffffff160217905550565b6000606660008473ffffffffffffffffffffffffffffffffffffffff1673ffffffffffffffffffffffffffffffffffffffff16815260200190815260200160002060008373ffffffffffffffffffffffffffffffffffffffff1673ffffffffffffffffffffffffffffffffffffffff16815260200190815260200160002060009054906101000a900460ff16905092915050565b6112766115b7565b73ffffffffffffffffffffffffffffffffffffffff168573ffffffffffffffffffffffffffffffffffffffff1614806112bc57506112bb856112b66115b7565b6111da565b5b6112fb576040517f08c379a00000000000000000000000000000000000000000000000000000000081526004016112f2906133dc565b60405180910390fd5b6113088585858585611dd8565b5050505050565b60c960009054906101000a900473ffffffffffffffffffffffffffffffffffffffff1673ffffffffffffffffffffffffffffffffffffffff163373ffffffffffffffffffffffffffffffffffffffff161461139f576040517f08c379a000000000000000000000000000000000000000000000000000000000815260040161139690613448565b60405180910390fd5b82600073ffffffffffffffffffffffffffffffffffffffff168173ffffffffffffffffffffffffffffffffffffffff160361140f576040517f08c379a00000000000000000000000000000000000000000000000000000000081526004016114069061377b565b60405180910390fd5b6114176118e3565b61142082611932565b600060cd8460405161143291906132c1565b9081526020016040518091039020549050600081036114575761145484610c2a565b90505b8260ce6000838152602001908152602001600020600082825461147a9190613d3d565b925050819055507fec0b819c0d447c0fb3daa59a87cf673f967fe7d3c9b80ae82eb3c04c3ea87281858286866040516114b69493929190613d71565b60405180910390a16114d985828560405180602001604052806000815250612076565b506114e2611bc0565b50505050565b60007f01ffc9a7000000000000000000000000000000000000000000000000000000007bffffffffffffffffffffffffffffffffffffffffffffffffffffffff1916827bffffffffffffffffffffffffffffffffffffffffffffffffffffffff1916149050919050565b600060cc6000838152602001908152602001600020805461157290613254565b9050116115b4576040517f08c379a00000000000000000000000000000000000000000000000000000000081526004016115ab90613e2f565b60405180910390fd5b50565b600033905090565b8151835114611603576040517f08c379a00000000000000000000000000000000000000000000000000000000081526004016115fa90613ec1565b60405180910390fd5b600073ffffffffffffffffffffffffffffffffffffffff168473ffffffffffffffffffffffffffffffffffffffff1603611672576040517f08c379a000000000000000000000000000000000000000000000000000000000815260040161166990613f53565b60405180910390fd5b600061167c6115b7565b905061168c818787878787612227565b60005b84518110156118405760008582815181106116ad576116ac613626565b5b6020026020010151905060008583815181106116cc576116cb613626565b5b6020026020010151905060006065600084815260200190815260200160002060008b73ffffffffffffffffffffffffffffffffffffffff1673ffffffffffffffffffffffffffffffffffffffff1681526020019081526020016000205490508181101561176e576040517f08c379a000000000000000000000000000000000000000000000000000000000815260040161176590613fe5565b60405180910390fd5b8181036065600085815260200190815260200160002060008c73ffffffffffffffffffffffffffffffffffffffff1673ffffffffffffffffffffffffffffffffffffffff16815260200190815260200160002081905550816065600085815260200190815260200160002060008b73ffffffffffffffffffffffffffffffffffffffff1673ffffffffffffffffffffffffffffffffffffffff16815260200190815260200160002060008282546118259190613d3d565b925050819055505050508061183990613655565b905061168f565b508473ffffffffffffffffffffffffffffffffffffffff168673ffffffffffffffffffffffffffffffffffffffff168273ffffffffffffffffffffffffffffffffffffffff167f4a39dc06d4c0dbc64b70af90fd698a233a518aa5d07e595d983b8c0526c8f7fb87876040516118b7929190614005565b60405180910390a46118cd81878787878761222f565b6118db818787878787612237565b505050505050565b600260975403611928576040517f08c379a000000000000000000000000000000000000000000000000000000000815260040161191f90614088565b60405180910390fd5b6002609781905550565b60008111611975576040517f08c379a000000000000000000000000000000000000000000000000000000000815260040161196c906140f4565b60405180910390fd5b50565b600073ffffffffffffffffffffffffffffffffffffffff168373ffffffffffffffffffffffffffffffffffffffff16036119e7576040517f08c379a00000000000000000000000000000000000000000000000000000000081526004016119de90614186565b60405180910390fd5b60006119f16115b7565b905060006119fe8461240e565b90506000611a0b8461240e565b9050611a2b83876000858560405180602001604052806000815250612227565b60006065600087815260200190815260200160002060008873ffffffffffffffffffffffffffffffffffffffff1673ffffffffffffffffffffffffffffffffffffffff16815260200190815260200160002054905084811015611ac3576040517f08c379a0000000000000000000000000000000000000000000000000000000008152600401611aba90614218565b60405180910390fd5b8481036065600088815260200190815260200160002060008973ffffffffffffffffffffffffffffffffffffffff1673ffffffffffffffffffffffffffffffffffffffff16815260200190815260200160002081905550600073ffffffffffffffffffffffffffffffffffffffff168773ffffffffffffffffffffffffffffffffffffffff168573ffffffffffffffffffffffffffffffffffffffff167fc3d58168c5ae7397731d063d5bbf3d657854427343f4c083240f7aacaa2d0f628989604051611b91929190614238565b60405180910390a4611bb78488600086866040518060200160405280600081525061222f565b50505050505050565b6001609781905550565b6000808273ffffffffffffffffffffffffffffffffffffffff163b119050919050565b600060019054906101000a900460ff16611c3c576040517f08c379a0000000000000000000000000000000000000000000000000000000008152600401611c33906142d3565b60405180910390fd5b611c4581612488565b50565b6001816000016000828254019250508190555050565b600081600001549050919050565b8173ffffffffffffffffffffffffffffffffffffffff168373ffffffffffffffffffffffffffffffffffffffff1603611cda576040517f08c379a0000000000000000000000000000000000000000000000000000000008152600401611cd190614365565b60405180910390fd5b80606660008573ffffffffffffffffffffffffffffffffffffffff1673ffffffffffffffffffffffffffffffffffffffff16815260200190815260200160002060008473ffffffffffffffffffffffffffffffffffffffff1673ffffffffffffffffffffffffffffffffffffffff16815260200190815260200160002060006101000a81548160ff0219169083151502179055508173ffffffffffffffffffffffffffffffffffffffff168373ffffffffffffffffffffffffffffffffffffffff167f17307eab39ab6107e8899845ad3d59bd9653f200f220920489ca2b5937696c3183604051611dcb919061287f565b60405180910390a3505050565b600073ffffffffffffffffffffffffffffffffffffffff168473ffffffffffffffffffffffffffffffffffffffff1603611e47576040517f08c379a0000000000000000000000000000000000000000000000000000000008152600401611e3e90613f53565b60405180910390fd5b6000611e516115b7565b90506000611e5e8561240e565b90506000611e6b8561240e565b9050611e7b838989858589612227565b60006065600088815260200190815260200160002060008a73ffffffffffffffffffffffffffffffffffffffff1673ffffffffffffffffffffffffffffffffffffffff16815260200190815260200160002054905085811015611f13576040517f08c379a0000000000000000000000000000000000000000000000000000000008152600401611f0a90613fe5565b60405180910390fd5b8581036065600089815260200190815260200160002060008b73ffffffffffffffffffffffffffffffffffffffff1673ffffffffffffffffffffffffffffffffffffffff16815260200190815260200160002081905550856065600089815260200190815260200160002060008a73ffffffffffffffffffffffffffffffffffffffff1673ffffffffffffffffffffffffffffffffffffffff1681526020019081526020016000206000828254611fca9190613d3d565b925050819055508773ffffffffffffffffffffffffffffffffffffffff168973ffffffffffffffffffffffffffffffffffffffff168573ffffffffffffffffffffffffffffffffffffffff167fc3d58168c5ae7397731d063d5bbf3d657854427343f4c083240f7aacaa2d0f628a8a604051612047929190614238565b60405180910390a461205d848a8a86868a61222f565b61206b848a8a8a8a8a6124e3565b505050505050505050565b600073ffffffffffffffffffffffffffffffffffffffff168473ffffffffffffffffffffffffffffffffffffffff16036120e5576040517f08c379a00000000000000000000000000000000000000000000000000000000081526004016120dc906143f7565b60405180910390fd5b60006120ef6115b7565b905060006120fc8561240e565b905060006121098561240e565b905061211a83600089858589612227565b846065600088815260200190815260200160002060008973ffffffffffffffffffffffffffffffffffffffff1673ffffffffffffffffffffffffffffffffffffffff168152602001908152602001600020600082825461217a9190613d3d565b925050819055508673ffffffffffffffffffffffffffffffffffffffff16600073ffffffffffffffffffffffffffffffffffffffff168473ffffffffffffffffffffffffffffffffffffffff167fc3d58168c5ae7397731d063d5bbf3d657854427343f4c083240f7aacaa2d0f6289896040516121f8929190614238565b60405180910390a461220f8360008985858961222f565b61221e836000898989896124e3565b50505050505050565b505050505050565b505050505050565b6122568473ffffffffffffffffffffffffffffffffffffffff16611bca565b15612406578373ffffffffffffffffffffffffffffffffffffffff1663bc197c8187878686866040518663ffffffff1660e01b815260040161229c95949392919061446c565b6020604051808303816000875af19250505080156122d857506040513d601f19601f820116820180604052508101906122d591906144e9565b60015b61237d576122e4614523565b806308c379a00361234057506122f8614545565b806123035750612342565b806040517f08c379a00000000000000000000000000000000000000000000000000000000081526004016123379190612957565b60405180910390fd5b505b6040517f08c379a000000000000000000000000000000000000000000000000000000000815260040161237490614647565b60405180910390fd5b63bc197c8160e01b7bffffffffffffffffffffffffffffffffffffffffffffffffffffffff1916817bffffffffffffffffffffffffffffffffffffffffffffffffffffffff191614612404576040517f08c379a00000000000000000000000000000000000000000000000000000000081526004016123fb906146d9565b60405180910390fd5b505b505050505050565b60606000600167ffffffffffffffff81111561242d5761242c612983565b5b60405190808252806020026020018201604052801561245b5781602001602082028036833780820191505090505b509050828160008151811061247357612472613626565b5b60200260200101818152505080915050919050565b600060019054906101000a900460ff166124d7576040517f08c379a00000000000000000000000000000000000000000000000000000000081526004016124ce906142d3565b60405180910390fd5b6124e0816126ba565b50565b6125028473ffffffffffffffffffffffffffffffffffffffff16611bca565b156126b2578373ffffffffffffffffffffffffffffffffffffffff1663f23a6e6187878686866040518663ffffffff1660e01b81526004016125489594939291906146f9565b6020604051808303816000875af192505050801561258457506040513d601f19601f8201168201806040525081019061258191906144e9565b60015b61262957612590614523565b806308c379a0036125ec57506125a4614545565b806125af57506125ee565b806040517f08c379a00000000000000000000000000000000000000000000000000000000081526004016125e39190612957565b60405180910390fd5b505b6040517f08c379a000000000000000000000000000000000000000000000000000000000815260040161262090614647565b60405180910390fd5b63f23a6e6160e01b7bffffffffffffffffffffffffffffffffffffffffffffffffffffffff1916817bffffffffffffffffffffffffffffffffffffffffffffffffffffffff1916146126b0576040517f08c379a00000000000000000000000000000000000000000000000000000000081526004016126a7906146d9565b60405180910390fd5b505b505050505050565b80606790816126c99190613a82565b5050565b6000604051905090565b600080fd5b600080fd5b600073ffffffffffffffffffffffffffffffffffffffff82169050919050565b600061270c826126e1565b9050919050565b61271c81612701565b811461272757600080fd5b50565b60008135905061273981612713565b92915050565b6000819050919050565b6127528161273f565b811461275d57600080fd5b50565b60008135905061276f81612749565b92915050565b6000806040838503121561278c5761278b6126d7565b5b600061279a8582860161272a565b92505060206127ab85828601612760565b9150509250929050565b6127be8161273f565b82525050565b60006020820190506127d960008301846127b5565b92915050565b60007fffffffff0000000000000000000000000000000000000000000000000000000082169050919050565b612814816127df565b811461281f57600080fd5b50565b6000813590506128318161280b565b92915050565b60006020828403121561284d5761284c6126d7565b5b600061285b84828501612822565b91505092915050565b60008115159050919050565b61287981612864565b82525050565b60006020820190506128946000830184612870565b92915050565b6000602082840312156128b0576128af6126d7565b5b60006128be84828501612760565b91505092915050565b600081519050919050565b600082825260208201905092915050565b60005b838110156129015780820151818401526020810190506128e6565b60008484015250505050565b6000601f19601f8301169050919050565b6000612929826128c7565b61293381856128d2565b93506129438185602086016128e3565b61294c8161290d565b840191505092915050565b60006020820190508181036000830152612971818461291e565b905092915050565b600080fd5b600080fd5b7f4e487b7100000000000000000000000000000000000000000000000000000000600052604160045260246000fd5b6129bb8261290d565b810181811067ffffffffffffffff821117156129da576129d9612983565b5b80604052505050565b60006129ed6126cd565b90506129f982826129b2565b919050565b600067ffffffffffffffff821115612a1957612a18612983565b5b612a228261290d565b9050602081019050919050565b82818337600083830152505050565b6000612a51612a4c846129fe565b6129e3565b905082815260208101848484011115612a6d57612a6c61297e565b5b612a78848285612a2f565b509392505050565b600082601f830112612a9557612a94612979565b5b8135612aa5848260208601612a3e565b91505092915050565b600060208284031215612ac457612ac36126d7565b5b600082013567ffffffffffffffff811115612ae257612ae16126dc565b5b612aee84828501612a80565b91505092915050565b612b0081612701565b82525050565b6000602082019050612b1b6000830184612af7565b92915050565b600067ffffffffffffffff821115612b3c57612b3b612983565b5b602082029050602081019050919050565b600080fd5b6000612b65612b6084612b21565b6129e3565b90508083825260208201905060208402830185811115612b8857612b87612b4d565b5b835b81811015612bb15780612b9d8882612760565b845260208401935050602081019050612b8a565b5050509392505050565b600082601f830112612bd057612bcf612979565b5b8135612be0848260208601612b52565b91505092915050565b600067ffffffffffffffff821115612c0457612c03612983565b5b612c0d8261290d565b9050602081019050919050565b6000612c2d612c2884612be9565b6129e3565b905082815260208101848484011115612c4957612c4861297e565b5b612c54848285612a2f565b509392505050565b600082601f830112612c7157612c70612979565b5b8135612c81848260208601612c1a565b91505092915050565b600080600080600060a08688031215612ca657612ca56126d7565b5b6000612cb48882890161272a565b9550506020612cc58882890161272a565b945050604086013567ffffffffffffffff811115612ce657612ce56126dc565b5b612cf288828901612bbb565b935050606086013567ffffffffffffffff811115612d1357612d126126dc565b5b612d1f88828901612bbb565b925050608086013567ffffffffffffffff811115612d4057612d3f6126dc565b5b612d4c88828901612c5c565b9150509295509295909350565b60008060408385031215612d7057612d6f6126d7565b5b6000612d7e85828601612760565b9250506020612d8f85828601612760565b9150509250929050565b600067ffffffffffffffff821115612db457612db3612983565b5b602082029050602081019050919050565b6000612dd8612dd384612d99565b6129e3565b90508083825260208201905060208402830185811115612dfb57612dfa612b4d565b5b835b81811015612e245780612e10888261272a565b845260208401935050602081019050612dfd565b5050509392505050565b600082601f830112612e4357612e42612979565b5b8135612e53848260208601612dc5565b91505092915050565b60008060408385031215612e7357612e726126d7565b5b600083013567ffffffffffffffff811115612e9157612e906126dc565b5b612e9d85828601612e2e565b925050602083013567ffffffffffffffff811115612ebe57612ebd6126dc565b5b612eca85828601612bbb565b9150509250929050565b600081519050919050565b600082825260208201905092915050565b6000819050602082019050919050565b612f098161273f565b82525050565b6000612f1b8383612f00565b60208301905092915050565b6000602082019050919050565b6000612f3f82612ed4565b612f498185612edf565b9350612f5483612ef0565b8060005b83811015612f85578151612f6c8882612f0f565b9750612f7783612f27565b925050600181019050612f58565b5085935050505092915050565b60006020820190508181036000830152612fac8184612f34565b905092915050565b612fbd81612864565b8114612fc857600080fd5b50565b600081359050612fda81612fb4565b92915050565b60008060408385031215612ff757612ff66126d7565b5b60006130058582860161272a565b925050602061301685828601612fcb565b9150509250929050565b600060208284031215613036576130356126d7565b5b60006130448482850161272a565b91505092915050565b60008060408385031215613064576130636126d7565b5b60006130728582860161272a565b92505060206130838582860161272a565b9150509250929050565b600080600080600060a086880312156130a9576130a86126d7565b5b60006130b78882890161272a565b95505060206130c88882890161272a565b94505060406130d988828901612760565b93505060606130ea88828901612760565b925050608086013567ffffffffffffffff81111561310b5761310a6126dc565b5b61311788828901612c5c565b9150509295509295909350565b60008060006060848603121561313d5761313c6126d7565b5b600061314b8682870161272a565b935050602084013567ffffffffffffffff81111561316c5761316b6126dc565b5b61317886828701612a80565b925050604061318986828701612760565b9150509250925092565b7f455243313135353a2061646472657373207a65726f206973206e6f742061207660008201527f616c6964206f776e657200000000000000000000000000000000000000000000602082015250565b60006131ef602a836128d2565b91506131fa82613193565b604082019050919050565b6000602082019050818103600083015261321e816131e2565b9050919050565b7f4e487b7100000000000000000000000000000000000000000000000000000000600052602260045260246000fd5b6000600282049050600182168061326c57607f821691505b60208210810361327f5761327e613225565b5b50919050565b600081905092915050565b600061329b826128c7565b6132a58185613285565b93506132b58185602086016128e3565b80840191505092915050565b60006132cd8284613290565b915081905092915050565b7f536f6c617253797374656d4e66743a20546f6b656e55726920646f6573206e6f60008201527f7420657869737400000000000000000000000000000000000000000000000000602082015250565b60006133346027836128d2565b915061333f826132d8565b604082019050919050565b6000602082019050818103600083015261336381613327565b9050919050565b7f455243313135353a2063616c6c6572206973206e6f7420746f6b656e206f776e60008201527f6572206f7220617070726f766564000000000000000000000000000000000000602082015250565b60006133c6602e836128d2565b91506133d18261336a565b604082019050919050565b600060208201905081810360008301526133f5816133b9565b9050919050565b7f536f6c617253797374656d4e66743a204e6f74206f776e657200000000000000600082015250565b60006134326019836128d2565b915061343d826133fc565b602082019050919050565b6000602082019050818103600083015261346181613425565b9050919050565b7f536f6c617253797374656d4e66743a20496e73756666696369656e742062616c60008201527f616e636520746f206275726e0000000000000000000000000000000000000000602082015250565b60006134c4602c836128d2565b91506134cf82613468565b604082019050919050565b600060208201905081810360008301526134f3816134b7565b9050919050565b7f4e487b7100000000000000000000000000000000000000000000000000000000600052601160045260246000fd5b60006135348261273f565b915061353f8361273f565b9250828203905081811115613557576135566134fa565b5b92915050565b60006060820190506135726000830186612af7565b61357f60208301856127b5565b61358c60408301846127b5565b949350505050565b7f455243313135353a206163636f756e747320616e6420696473206c656e67746860008201527f206d69736d617463680000000000000000000000000000000000000000000000602082015250565b60006135f06029836128d2565b91506135fb82613594565b604082019050919050565b6000602082019050818103600083015261361f816135e3565b9050919050565b7f4e487b7100000000000000000000000000000000000000000000000000000000600052603260045260246000fd5b60006136608261273f565b91507fffffffffffffffffffffffffffffffffffffffffffffffffffffffffffffffff8203613692576136916134fa565b5b600182019050919050565b7f496e697469616c697a61626c653a20636f6e747261637420697320616c72656160008201527f647920696e697469616c697a6564000000000000000000000000000000000000602082015250565b60006136f9602e836128d2565b91506137048261369d565b604082019050919050565b60006020820190508181036000830152613728816136ec565b9050919050565b7f536f6c617253797374656d4e66743a205a65726f206164647265737300000000600082015250565b6000613765601c836128d2565b91506137708261372f565b602082019050919050565b6000602082019050818103600083015261379481613758565b9050919050565b6000819050919050565b600060ff82169050919050565b6000819050919050565b60006137d76137d26137cd8461379b565b6137b2565b6137a5565b9050919050565b6137e7816137bc565b82525050565b600060208201905061380260008301846137de565b92915050565b7f536f6c617253797374656d4e66743a20496e76616c6964207572690000000000600082015250565b600061383e601b836128d2565b915061384982613808565b602082019050919050565b6000602082019050818103600083015261386d81613831565b9050919050565b7f536f6c617253797374656d4e66743a204e667420757269206578697374000000600082015250565b60006138aa601d836128d2565b91506138b582613874565b602082019050919050565b600060208201905081810360008301526138d98161389d565b9050919050565b60008190508160005260206000209050919050565b60006020601f8301049050919050565b600082821b905092915050565b6000600883026139427fffffffffffffffffffffffffffffffffffffffffffffffffffffffffffffffff82613905565b61394c8683613905565b95508019841693508086168417925050509392505050565b600061397f61397a6139758461273f565b6137b2565b61273f565b9050919050565b6000819050919050565b61399983613964565b6139ad6139a582613986565b848454613912565b825550505050565b600090565b6139c26139b5565b6139cd818484613990565b505050565b5b818110156139f1576139e66000826139ba565b6001810190506139d3565b5050565b601f821115613a3657613a07816138e0565b613a10846138f5565b81016020851015613a1f578190505b613a33613a2b856138f5565b8301826139d2565b50505b505050565b600082821c905092915050565b6000613a5960001984600802613a3b565b1980831691505092915050565b6000613a728383613a48565b9150826002028217905092915050565b613a8b826128c7565b67ffffffffffffffff811115613aa457613aa3612983565b5b613aae8254613254565b613ab98282856139f5565b600060209050601f831160018114613aec5760008415613ada578287015190505b613ae48582613a66565b865550613b4c565b601f198416613afa866138e0565b60005b82811015613b2257848901518255600182019150602085019450602081019050613afd565b86831015613b3f5784890151613b3b601f891682613a48565b8355505b6001600288020188555050505b505050505050565b6000604082019050613b6960008301856127b5565b8181036020830152613b7b818461291e565b90509392505050565b7f536f6c617253797374656d4e66743a204f776e65722063616e6e6f742062652060008201527f61206e6f6d696e65650000000000000000000000000000000000000000000000602082015250565b6000613be06029836128d2565b9150613beb82613b84565b604082019050919050565b60006020820190508181036000830152613c0f81613bd3565b9050919050565b7f536f6c617253797374656d4e66743a20416c72656164792061206e6f6d696e6560008201527f6500000000000000000000000000000000000000000000000000000000000000602082015250565b6000613c726021836128d2565b9150613c7d82613c16565b604082019050919050565b60006020820190508181036000830152613ca181613c65565b9050919050565b6000604082019050613cbd6000830185612af7565b613cca6020830184612af7565b9392505050565b7f536f6c617253797374656d4e66743a204e6f74206e6f6d696e65650000000000600082015250565b6000613d07601b836128d2565b9150613d1282613cd1565b602082019050919050565b60006020820190508181036000830152613d3681613cfa565b9050919050565b6000613d488261273f565b9150613d538361273f565b9250828201905080821115613d6b57613d6a6134fa565b5b92915050565b6000608082019050613d866000830187612af7565b613d9360208301866127b5565b8181036040830152613da5818561291e565b9050613db460608301846127b5565b95945050505050565b7f536f6c617253797374656d4e66743a20546f6b656e496420646f6573206e6f7460008201527f2065786973740000000000000000000000000000000000000000000000000000602082015250565b6000613e196026836128d2565b9150613e2482613dbd565b604082019050919050565b60006020820190508181036000830152613e4881613e0c565b9050919050565b7f455243313135353a2069647320616e6420616d6f756e7473206c656e6774682060008201527f6d69736d61746368000000000000000000000000000000000000000000000000602082015250565b6000613eab6028836128d2565b9150613eb682613e4f565b604082019050919050565b60006020820190508181036000830152613eda81613e9e565b9050919050565b7f455243313135353a207472616e7366657220746f20746865207a65726f20616460008201527f6472657373000000000000000000000000000000000000000000000000000000602082015250565b6000613f3d6025836128d2565b9150613f4882613ee1565b604082019050919050565b60006020820190508181036000830152613f6c81613f30565b9050919050565b7f455243313135353a20696e73756666696369656e742062616c616e636520666f60008201527f72207472616e7366657200000000000000000000000000000000000000000000602082015250565b6000613fcf602a836128d2565b9150613fda82613f73565b604082019050919050565b60006020820190508181036000830152613ffe81613fc2565b9050919050565b6000604082019050818103600083015261401f8185612f34565b905081810360208301526140338184612f34565b90509392505050565b7f5265656e7472616e637947756172643a207265656e7472616e742063616c6c00600082015250565b6000614072601f836128d2565b915061407d8261403c565b602082019050919050565b600060208201905081810360008301526140a181614065565b9050919050565b7f536f6c617253797374656d4e66743a20416d6f756e74206973207a65726f0000600082015250565b60006140de601e836128d2565b91506140e9826140a8565b602082019050919050565b6000602082019050818103600083015261410d816140d1565b9050919050565b7f455243313135353a206275726e2066726f6d20746865207a65726f206164647260008201527f6573730000000000000000000000000000000000000000000000000000000000602082015250565b60006141706023836128d2565b915061417b82614114565b604082019050919050565b6000602082019050818103600083015261419f81614163565b9050919050565b7f455243313135353a206275726e20616d6f756e7420657863656564732062616c60008201527f616e636500000000000000000000000000000000000000000000000000000000602082015250565b60006142026024836128d2565b915061420d826141a6565b604082019050919050565b60006020820190508181036000830152614231816141f5565b9050919050565b600060408201905061424d60008301856127b5565b61425a60208301846127b5565b9392505050565b7f496e697469616c697a61626c653a20636f6e7472616374206973206e6f74206960008201527f6e697469616c697a696e67000000000000000000000000000000000000000000602082015250565b60006142bd602b836128d2565b91506142c882614261565b604082019050919050565b600060208201905081810360008301526142ec816142b0565b9050919050565b7f455243313135353a2073657474696e6720617070726f76616c2073746174757360008201527f20666f722073656c660000000000000000000000000000000000000000000000602082015250565b600061434f6029836128d2565b915061435a826142f3565b604082019050919050565b6000602082019050818103600083015261437e81614342565b9050919050565b7f455243313135353a206d696e7420746f20746865207a65726f2061646472657360008201527f7300000000000000000000000000000000000000000000000000000000000000602082015250565b60006143e16021836128d2565b91506143ec82614385565b604082019050919050565b60006020820190508181036000830152614410816143d4565b9050919050565b600081519050919050565b600082825260208201905092915050565b600061443e82614417565b6144488185614422565b93506144588185602086016128e3565b6144618161290d565b840191505092915050565b600060a0820190506144816000830188612af7565b61448e6020830187612af7565b81810360408301526144a08186612f34565b905081810360608301526144b48185612f34565b905081810360808301526144c88184614433565b90509695505050505050565b6000815190506144e38161280b565b92915050565b6000602082840312156144ff576144fe6126d7565b5b600061450d848285016144d4565b91505092915050565b60008160e01c9050919050565b600060033d11156145425760046000803e61453f600051614516565b90505b90565b600060443d106145d2576145576126cd565b60043d036004823e80513d602482011167ffffffffffffffff8211171561457f5750506145d2565b808201805167ffffffffffffffff81111561459d57505050506145d2565b80602083010160043d0385018111156145ba5750505050506145d2565b6145c9826020018501866129b2565b82955050505050505b90565b7f455243313135353a207472616e7366657220746f206e6f6e2d4552433131353560008201527f526563656976657220696d706c656d656e746572000000000000000000000000602082015250565b60006146316034836128d2565b915061463c826145d5565b604082019050919050565b6000602082019050818103600083015261466081614624565b9050919050565b7f455243313135353a204552433131353552656365697665722072656a6563746560008201527f6420746f6b656e73000000000000000000000000000000000000000000000000602082015250565b60006146c36028836128d2565b91506146ce82614667565b604082019050919050565b600060208201905081810360008301526146f2816146b6565b9050919050565b600060a08201905061470e6000830188612af7565b61471b6020830187612af7565b61472860408301866127b5565b61473560608301856127b5565b81810360808301526147478184614433565b9050969550505050505056fea264697066735822122010b25adbbd36d6570342f803d3ae2cd4549ffffce58d9fdb41500291c98a169864736f6c63430008110033",
  "linkReferences": {},
  "deployedLinkReferences": {}
}